:100000000C945D000C947A000C947A000C947A00A5
:100010000C947A000C947A000C947A000C94D5011C
:100020000C947A000C947A000C947A000C947A0068
:100030000C947A000C947A000C947A000C947A0058
:100040000C947A000C947A000C947A000C947A0048
:100050000C947A000C947A000C947A000C947A0038
:100060000C947A000C947A000C947A000C947A0028
:100070000C947A000C947A000C947A000C947A0018
:100080000C947A000C947A000C947A000C947A0008
:100090000C947A000C947A000C947A000C947A00F8
:1000A0000C947A000C947A000C947A0085008700F6
:1000B0008A008C008E009100950011241FBECFEFA6
:1000C000DAE0DEBFCDBF11E0A0E0B1E0ECE7FDE09B
:1000D00002C005900D92A630B107D9F721E0A6E045
:1000E000B1E001C01D92A738B207E1F70E945B02A0
:1000F0000C94BC060C94000090E087309105C0F48D
:10010000FC01EA5AFF4F0C94B6065C9A01C05C9859
:100110005E980DC05C9806C05C9A01C05C985E98C1
:1001200002C05C9A5E9A5F9803C05C985E9A5F9A80
:1001300082E08A95F1F700C00895CF93DF93C0E085
:10014000479A8C2F0E947C0080E50E944C0680E03C
:100150000E947D0681E50E9473060E9498068093A6
:1001600006010E9475062FEF84E39CE02150804039
:100170009040E1F700C00000469A2FEF84E39CE036
:10018000215080409040E1F700C000004698479819
:1001900080E50E944C068FE30E947D0680E20E946B
:1001A0007D060E947506CF5FC73051F62FE78FE4BA
:1001B00092E1215080409040E1F700C00000C0E093
:1001C000D0E08C2F0E947C00209711F180E50E94E6
:1001D0004C0681E40E947D0681E20E947D060E9419
:1001E00075068FE19EE40197F1F700C0000080E5FD
:1001F0000E944C0682E40E947D0684E00E947D06F7
:100200000E9475068FE19EE40197F1F700C000009F
:1002100080E50E944C068DE30E947D068CE00E94E2
:100220007D060E9475062196C730D10551F69FEFD5
:1002300020E782E0915020408040E1F700C00000BC
:10024000DF91CF910895CF93DF93EB010E947C0063
:1002500080E50E944C0680E20E947D0681E50E94B6
:1002600073060E948E0688830E948E0689830E94F0
:100270008E068A830E948E068B830E948E068C8354
:100280000E948E068D830E948E068E830E949806A1
:100290008F83DF91CF910C947506CF93DF93EB01A1
:1002A0000E947C0080E50E944C0680E20E947D0650
:1002B00081E50E9473060E948E0688830E948E0646
:1002C00089830E948E068A830E948E068B830E94F9
:1002D0008E068C830E948E068D830E948E068E83EE
:1002E0000E948E068F830E948E0688870E948E064B
:1002F00089870E948E068A870E948E068B870E94BD
:100300008E068C870E9498068D87DF91CF910C9482
:10031000750690E080E80FB6F894809361009093A2
:1003200061000FBE519A50983E9A3F9A549A569A3D
:10033000579A86E090E04698479A2FEF30E742E0E0
:10034000215030404040E1F700C00000469A4798F5
:100350002FEF30E742E0215030404040E1F700C04D
:100360000000019741F7469847988FE79FE422E104
:10037000815090402040E1F700C00000089583E3E1
:1003800090E09093CD008093CC00E8ECF0E0808189
:100390008D7F8083EAECF0E0808186608083E9ECE9
:1003A000F0E080818861808308951F920F920FB6DC
:1003B0000F9211242F933F934F935F936F937F93EB
:1003C0008F939F93AF93BF93EF93FF93CF93DF935D
:1003D00000D0CDB7DEB7F8940E948E03AE014F5F18
:1003E0005F4FBE016E5F7F4F87E091E00E94EA039E
:1003F00087EC90E00197F1F700C0000060E487E02F
:100400000E9429040F900F90DF91CF91FF91EF91FF
:10041000BF91AF919F918F917F916F915F914F911C
:100420003F912F910F900FBE0F901F901895813024
:10043000F1F492E090935701909347018093480123
:1004400090935801909377019093670183E0809394
:10045000680184E08093780190933701909327019D
:1004600085E08093280186E080933801089582E03A
:1004700080935B01809351018093470191E09093B9
:1004800048018093520193E090935C0180937B013B
:10049000809371018093670194E09093680195E0E7
:1004A0009093720196E090937C018093270187E0FE
:1004B000809328010895CF93DF9300D000D01F923E
:1004C000CDB7DEB70E9489010E9424060E94BF01B9
:1004D0000E94040621E045E061E089E60E941705DC
:1004E00040E061E080E091E00E94C1050E949D0033
:1004F00080E00E941702F8940E94720441E061E0DB
:1005000081E00E944C040E9474030E947E030E94BA
:100510006E040E9488038BE291E00197F1F700C01E
:1005200000001D8280918100826080938100109282
:1005300085001092840000E069E471E080E0013001
:1005400079F50E944D0169E571E081E00E944D015D
:100550000E94740340E267E471E080E00E94FE05BF
:1005600069E671E082E00E944D0169E771E083E095
:100570000E944D010E94740340E267E671E080E052
:100580000E94FE0569E271E084E00E944D0169E38A
:1005900071E085E00E944D010E94740340E233C087
:1005A0000E94230163E571E081E00E9423016DE573
:1005B00071E082E00E9423010E9474034EE167E42F
:1005C00071E080E00E94FE0569E671E083E00E9430
:1005D000230163E771E084E00E9423016DE771E08D
:1005E00085E00E9423010E9474034EE167E671E0FA
:1005F00080E00E94FE0569E271E086E00E9423012E
:100600000E9474034AE067E271E080E00E94FE0508
:1006100080918400909185008031974228F492E087
:100620009A95F1F700C0F4CF1092850010928400E3
:100630001D82AE014F5F5F4FBE016E5F7F4FCE01E7
:1006400003960E945603882309F476CF0E946E0415
:100650008B81882309F470CF0E948E030E94C80307
:10066000882359F0AE014C5F5F4FBE016B5F7F4F37
:1006700087E091E00E94EA03F1CF0E948803109185
:100680000701101709F458CF123008F055CF812F09
:100690000E941702012F50CF28988FEF0E941E064C
:1006A000289A92E09A95F1F700C00895EF92FF9290
:1006B0000F931F93CF93DF937C018B01EA010E947C
:1006C0004C03982F9074F7019083982F9072F80143
:1006D0009083982F907198838077DF91CF911F91AD
:1006E0000F91FF90EF900895289882EE0E941E06C9
:1006F000289A82E08A95F1F700C00895289881EE43
:100700000E941E06289A82E08A95F1F700C008959B
:100710002D9A8DE08A95F1F7000008952D9808959F
:100720000E944C038695877008950F931F93CF9373
:100730008C01C62F289880E30E941E06CC2349F026
:10074000F801EC0FF11D319780810E941E06C15007
:10075000F5CF289A82E08A95F1F700C0CF911F91DA
:100760000F91089528980E941E068FEF0E941E0682
:10077000289A92E09A95F1F700C0089580E00E94CF
:10078000B2038270089587E10E94B20381700895D8
:1007900087E10E94B203809581700895863018F435
:1007A0008F5E0C94B20380E0089580E60C94B2034F
:1007B000CF93863060F4C82F8CE10E94B20321E011
:1007C00030E001C0220FCA95EAF7822301C080E021
:1007D000CF910895EF92FF920F931F93CF93DF93E2
:1007E000F82EE92EEB018A010E94C303882321F031
:1007F0001882F801108226C00E949003F8018083BD
:100800000E94D803882319F00E94D50304C0F80180
:1008100080810E94CE0388832898188181E60E94F7
:100820001E060F2DCF2DDE2D8C2F801B811728F457
:1008300080E00E941E068993F7CF289AF2E0FA958D
:10084000F1F700C0DF91CF911F910F91FF90EF90D2
:100850000895CF93C62F2898805E0E941E068C2F85
:100860000E941E06289A82E08A95F1F700C0CF9177
:1008700008950E94BE0381110EC02D980E94B203FC
:10088000682F626080E00E9429048FE99FE0019751
:10089000F1F700C0000008951F93CF93DF93182F46
:1008A000D62FC42F80E00E94B2038F78111102C0AE
:1008B00060E001C060E4D11102C020E001C020E28C
:1008C000C11102C090E001C090E1682B622B692B3E
:1008D00080E0DF91CF911F910C94290460E787E0BD
:1008E0000C9429042D9880E00E94B203682F616067
:1008F00080E00E9429040C946E048E3708F08DE786
:10090000682F85E00C942904833028F0682F863006
:1009100018F065E001C063E0625083E00C942904A4
:10092000CF93C82F80E00E94B203682F637FCC234F
:1009300029F0C13011F4686001C06C6080E0CF9193
:100940000C9429041F93CF93DF93EB01142F823073
:10095000A8F42898865D0E941E06112349F0FE0126
:10096000E10FF11D319780810E941E061150F5CFD5
:10097000289A82E08A95F1F700C00CC0863050F4C6
:10098000C40FD11D21976881865FDF91CF911F91A0
:100990000C942904DF91CF911F910895262F8A3F4F
:1009A000910538F0813A3FE0930728F080EA9FE014
:1009B00002C08AEF90E06AEF70E00E94A2066150E8
:1009C00030E1639FC0011124622F203108F06FE0F5
:1009D000682B84E00C942904863030F4613208F0EE
:1009E00060E28F5E0C9429040895CF93C82F86E0AF
:1009F0000E94B203682F677DC11102C0606203C00C
:100A0000C13009F0686086E0CF910C942904CF933F
:100A1000C82F86E00E94B2036C2FC43008F063E058
:100A2000660F897F682B86E0CF910C9429040F9381
:100A30001F93CF93DF93082F162FD42FC22F0E941E
:100A40003904802F0E947D04812F0E94F50483E0E9
:100A50000E9407058D2F0E9484048C2F0E94900411
:100A60006FE084EF91E0DF91CF911F910F910C9493
:100A7000CE04CF93863078F4C82F81E00E94B20371
:100A800061E070E001C0660FCA95EAF7682B81E06B
:100A9000CF910C942904CF910895CF93863078F4A8
:100AA000C82F82E00E94B20361E070E001C0660FCF
:100AB000CA95EAF7682B82E0CF910C942904CF9174
:100AC00008958DE10E94B203682F64608DE10C945B
:100AD0002904CF938630A0F4C82F0E9461058C2F83
:100AE0000E9439058CE10E94B20361E070E001C010
:100AF000660FCA95EAF7682B8CE1CF910C94290414
:100B0000CF9108950E9461058DE10E94B203682F84
:100B100062608DE10C9429048DE10E94B203682F7C
:100B20006D7F8DE10C9429048DE10E94B203682F42
:100B300061608DE10C9429041F93CF93DF93C82F3C
:100B4000142FD22F45E00E94A2048C2F0E944D0545
:100B500060E28C2F0E94EC048C2F0E946905112307
:100B600019F00E94820502C00E948C05DD2329F045
:100B7000DF91CF911F910C949405DF91CF911F913C
:100B800008950F931F93CF93DF93EC01162F042F3B
:100B900065E00E949503202F412FBE0180E0DF9188
:100BA000CF911F910F910C949C050F931F93CF939E
:100BB000DF93EC018C01060F111DC017D10721F046
:100BC00089910E941E06F9CFDF91CF911F910F915D
:100BD00008951F93CF93DF93EB01142F28980E9461
:100BE0001E06612FCE010E94D505289A82E08A95C3
:100BF000F1F700C0DF91CF911F910895863018F46E
:100C000088550C94E9050895259A209A229A219AEC
:100C100023988CB580658CBD8CB581608CBD8CB5FE
:100C20008D7F8CBD8DB581608DBD289A2D988FE10B
:100C30009EE40197F1F700C0000008958EBD0DB449
:100C400007FEFDCF8EB508951092B9008CE0809319
:100C5000B800089594EA9093BC009091BC0097FF6F
:100C6000FCCF9091B900987F983021F0903111F02D
:100C700081E008958093BB0084E88093BC0080915C
:100C8000BC0087FFFCCF8091B900887F883111F0CC
:100C9000803471F780E0089524EA34E844E9209331
:100CA000BC009091BC0097FFFCCF9091B900987F59
:100CB000983011F0903199F78093BB003093BC00CD
:100CC0009091BC0097FFFCCF9091B900987F903233
:100CD00011F0983539F44093BC009091BC0094FD1C
:100CE000FCCFDDCF08950C942A0684E98093BC00E4
:100CF0008091BC0084FDFCCF08958093BB0084E804
:100D00008093BC008091BC0087FFFCCF9091B9001C
:100D1000987F81E0983209F480E0089584EC809314
:100D2000BC008091BC0087FFFCCF8091BB00089580
:100D300084E88093BC008091BC0087FFFCCF809149
:100D4000BB000895AA1BBB1B51E107C0AA1FBB1F14
:100D5000A617B70710F0A61BB70B881F991F5A9547
:100D6000A9F780959095BC01CD010895EE0FFF1F66
:0C0D70000590F491E02D0994F894FFCF59
:060D7C00212223242500C2
:00000001FF
